{"abi":[{"type":"constructor","inputs":[],"stateMutability":"nonpayable"},{"type":"function","name":"approve","inputs":[{"name":"to","type":"address","internalType":"address"},{"name":"tokenId","type":"uint256","internalType":"uint256"}],"outputs":[],"stateMutability":"nonpayable"},{"type":"function","name":"balanceOf","inputs":[{"name":"owner","type":"address","internalType":"address"}],"outputs":[{"name":"","type":"uint256","internalType":"uint256"}],"stateMutability":"view"},{"type":"function","name":"getApproved","inputs":[{"name":"tokenId","type":"uint256","internalType":"uint256"}],"outputs":[{"name":"","type":"address","internalType":"address"}],"stateMutability":"view"},{"type":"function","name":"initialize","inputs":[{"name":"initialOwner","type":"address","internalType":"address"}],"outputs":[],"stateMutability":"nonpayable"},{"type":"function","name":"isApprovedForAll","inputs":[{"name":"owner","type":"address","internalType":"address"},{"name":"operator","type":"address","internalType":"address"}],"outputs":[{"name":"","type":"bool","internalType":"bool"}],"stateMutability":"view"},{"type":"function","name":"name","inputs":[],"outputs":[{"name":"","type":"string","internalType":"string"}],"stateMutability":"view"},{"type":"function","name":"owner","inputs":[],"outputs":[{"name":"","type":"address","internalType":"address"}],"stateMutability":"view"},{"type":"function","name":"ownerOf","inputs":[{"name":"tokenId","type":"uint256","internalType":"uint256"}],"outputs":[{"name":"","type":"address","internalType":"address"}],"stateMutability":"view"},{"type":"function","name":"renounceOwnership","inputs":[],"outputs":[],"stateMutability":"nonpayable"},{"type":"function","name":"safeMint","inputs":[{"name":"to","type":"address","internalType":"address"}],"outputs":[],"stateMutability":"nonpayable"},{"type":"function","name":"safeTransferFrom","inputs":[{"name":"from","type":"address","internalType":"address"},{"name":"to","type":"address","internalType":"address"},{"name":"tokenId","type":"uint256","internalType":"uint256"}],"outputs":[],"stateMutability":"nonpayable"},{"type":"function","name":"safeTransferFrom","inputs":[{"name":"from","type":"address","internalType":"address"},{"name":"to","type":"address","internalType":"address"},{"name":"tokenId","type":"uint256","internalType":"uint256"},{"name":"data","type":"bytes","internalType":"bytes"}],"outputs":[],"stateMutability":"nonpayable"},{"type":"function","name":"setApprovalForAll","inputs":[{"name":"operator","type":"address","internalType":"address"},{"name":"approved","type":"bool","internalType":"bool"}],"outputs":[],"stateMutability":"nonpayable"},{"type":"function","name":"supportsInterface","inputs":[{"name":"interfaceId","type":"bytes4","internalType":"bytes4"}],"outputs":[{"name":"","type":"bool","internalType":"bool"}],"stateMutability":"view"},{"type":"function","name":"symbol","inputs":[],"outputs":[{"name":"","type":"string","internalType":"string"}],"stateMutability":"view"},{"type":"function","name":"tokenURI","inputs":[{"name":"tokenId","type":"uint256","internalType":"uint256"}],"outputs":[{"name":"","type":"string","internalType":"string"}],"stateMutability":"view"},{"type":"function","name":"transferFrom","inputs":[{"name":"from","type":"address","internalType":"address"},{"name":"to","type":"address","internalType":"address"},{"name":"tokenId","type":"uint256","internalType":"uint256"}],"outputs":[],"stateMutability":"nonpayable"},{"type":"function","name":"transferOwnership","inputs":[{"name":"newOwner","type":"address","internalType":"address"}],"outputs":[],"stateMutability":"nonpayable"},{"type":"event","name":"Approval","inputs":[{"name":"owner","type":"address","indexed":true,"internalType":"address"},{"name":"approved","type":"address","indexed":true,"internalType":"address"},{"name":"tokenId","type":"uint256","indexed":true,"internalType":"uint256"}],"anonymous":false},{"type":"event","name":"ApprovalForAll","inputs":[{"name":"owner","type":"address","indexed":true,"internalType":"address"},{"name":"operator","type":"address","indexed":true,"internalType":"address"},{"name":"approved","type":"bool","indexed":false,"internalType":"bool"}],"anonymous":false},{"type":"event","name":"Initialized","inputs":[{"name":"version","type":"uint64","indexed":false,"internalType":"uint64"}],"anonymous":false},{"type":"event","name":"OwnershipTransferred","inputs":[{"name":"previousOwner","type":"address","indexed":true,"internalType":"address"},{"name":"newOwner","type":"address","indexed":true,"internalType":"address"}],"anonymous":false},{"type":"event","name":"Transfer","inputs":[{"name":"from","type":"address","indexed":true,"internalType":"address"},{"name":"to","type":"address","indexed":true,"internalType":"address"},{"name":"tokenId","type":"uint256","indexed":true,"internalType":"uint256"}],"anonymous":false},{"type":"error","name":"ERC721IncorrectOwner","inputs":[{"name":"sender","type":"address","internalType":"address"},{"name":"tokenId","type":"uint256","internalType":"uint256"},{"name":"owner","type":"address","internalType":"address"}]},{"type":"error","name":"ERC721InsufficientApproval","inputs":[{"name":"operator","type":"address","internalType":"address"},{"name":"tokenId","type":"uint256","internalType":"uint256"}]},{"type":"error","name":"ERC721InvalidApprover","inputs":[{"name":"approver","type":"address","internalType":"address"}]},{"type":"error","name":"ERC721InvalidOperator","inputs":[{"name":"operator","type":"address","internalType":"address"}]},{"type":"error","name":"ERC721InvalidOwner","inputs":[{"name":"owner","type":"address","internalType":"address"}]},{"type":"error","name":"ERC721InvalidReceiver","inputs":[{"name":"receiver","type":"address","internalType":"address"}]},{"type":"error","name":"ERC721InvalidSender","inputs":[{"name":"sender","type":"address","internalType":"address"}]},{"type":"error","name":"ERC721NonexistentToken","inputs":[{"name":"tokenId","type":"uint256","internalType":"uint256"}]},{"type":"error","name":"InvalidInitialization","inputs":[]},{"type":"error","name":"NotInitializing","inputs":[]},{"type":"error","name":"OwnableInvalidOwner","inputs":[{"name":"owner","type":"address","internalType":"address"}]},{"type":"error","name":"OwnableUnauthorizedAccount","inputs":[{"name":"account","type":"address","internalType":"address"}]}],"bytecode":{"object":"0x608060405234801561001057600080fd5b5061001961001e565b6100d0565b7ff0c57e16840df040f15088dc2f81fe391c3923bec73e23a9662efc9c229c6a00805468010000000000000000900460ff161561006e5760405163f92ee8a960e01b815260040160405180910390fd5b80546001600160401b03908116146100cd5780546001600160401b0319166001600160401b0390811782556040519081527fc7f505b2f371ae2175ee4913f4499e1f2633a7b5936321eed1cdaeb6115181d29060200160405180910390a15b50565b61160c806100df6000396000f3fe608060405234801561001057600080fd5b50600436106101165760003560e01c8063715018a6116100a2578063b88d4fde11610071578063b88d4fde14610258578063c4d66de81461026b578063c87b56dd1461027e578063e985e9c514610291578063f2fde38b146102a457600080fd5b8063715018a6146102055780638da5cb5b1461020d57806395d89b411461023d578063a22cb4651461024557600080fd5b806323b872dd116100e957806323b872dd1461019857806340d097c3146101ab57806342842e0e146101be5780636352211e146101d157806370a08231146101e457600080fd5b806301ffc9a71461011b57806306fdde0314610143578063081812fc14610158578063095ea7b314610183575b600080fd5b61012e6101293660046110ec565b6102b7565b60405190151581526020015b60405180910390f35b61014b610309565b60405161013a9190611159565b61016b61016636600461116c565b6103ad565b6040516001600160a01b03909116815260200161013a565b6101966101913660046111a1565b6103c2565b005b6101966101a63660046111cb565b6103d1565b6101966101b9366004611207565b610461565b6101966101cc3660046111cb565b610480565b61016b6101df36600461116c565b6104a0565b6101f76101f2366004611207565b6104ab565b60405190815260200161013a565b610196610507565b7f9016d09d72d40fdae2fd8ceac6b6234c7706214fd39c1cd1e609a0528c199300546001600160a01b031661016b565b61014b61051b565b610196610253366004611222565b61055a565b610196610266366004611274565b610565565b610196610279366004611207565b61057c565b61014b61028c36600461116c565b6106d4565b61012e61029f366004611350565b61073c565b6101966102b2366004611207565b610789565b60006001600160e01b031982166380ac58cd60e01b14806102e857506001600160e01b03198216635b5e139f60e01b145b8061030357506301ffc9a760e01b6001600160e01b03198316145b92915050565b600080516020611574833981519152805460609190819061032990611383565b80601f016020809104026020016040519081016040528092919081815260200182805461035590611383565b80156103a25780601f10610377576101008083540402835291602001916103a2565b820191906000526020600020905b81548152906001019060200180831161038557829003601f168201915b505050505091505090565b60006103b8826107c7565b50610303826107ff565b6103cd828233610839565b5050565b6001600160a01b03821661040057604051633250574960e11b8152600060048201526024015b60405180910390fd5b600061040d838333610846565b9050836001600160a01b0316816001600160a01b03161461045b576040516364283d7b60e01b81526001600160a01b03808616600483015260248201849052821660448201526064016103f7565b50505050565b600080548180610470836113bd565b9190505590506103cd8282610950565b61049b83838360405180602001604052806000815250610565565b505050565b6000610303826107c7565b60006000805160206115748339815191526001600160a01b0383166104e6576040516322718ad960e21b8152600060048201526024016103f7565b6001600160a01b039092166000908152600390920160205250604090205490565b61050f61096a565b61051960006109c5565b565b7f80bb2b638cc20bc4d0a60d66940f3ab4a00c1d7b313497ca82fb0b4ab007930180546060916000805160206115748339815191529161032990611383565b6103cd338383610a36565b6105708484846103d1565b61045b84848484610ae7565b7ff0c57e16840df040f15088dc2f81fe391c3923bec73e23a9662efc9c229c6a008054600160401b810460ff16159067ffffffffffffffff166000811580156105c25750825b905060008267ffffffffffffffff1660011480156105df5750303b155b9050811580156105ed575080155b1561060b5760405163f92ee8a960e01b815260040160405180910390fd5b845467ffffffffffffffff19166001178555831561063557845460ff60401b1916600160401b1785555b61067d6040518060400160405280600c81526020016b13585c98c810da1859d85b1b60a21b815250604051806040016040528060028152602001614d4360f01b815250610c10565b61068686610c22565b83156106cc57845460ff60401b19168555604051600181527fc7f505b2f371ae2175ee4913f4499e1f2633a7b5936321eed1cdaeb6115181d29060200160405180910390a15b505050505050565b60606106df826107c7565b5060006106ea610c33565b9050600081511161070a5760405180602001604052806000815250610735565b8061071484610c53565b6040516020016107259291906113e4565b6040516020818303038152906040525b9392505050565b6001600160a01b0391821660009081527f80bb2b638cc20bc4d0a60d66940f3ab4a00c1d7b313497ca82fb0b4ab00793056020908152604080832093909416825291909152205460ff1690565b61079161096a565b6001600160a01b0381166107bb57604051631e4fbdf760e01b8152600060048201526024016103f7565b6107c4816109c5565b50565b6000806107d383610ce6565b90506001600160a01b03811661030357604051637e27328960e01b8152600481018490526024016103f7565b60009081527f80bb2b638cc20bc4d0a60d66940f3ab4a00c1d7b313497ca82fb0b4ab007930460205260409020546001600160a01b031690565b61049b8383836001610d20565b60006000805160206115748339815191528161086185610ce6565b90506001600160a01b0384161561087d5761087d818587610e36565b6001600160a01b038116156108bd5761089a600086600080610d20565b6001600160a01b0381166000908152600383016020526040902080546000190190555b6001600160a01b038616156108ee576001600160a01b03861660009081526003830160205260409020805460010190555b600085815260028301602052604080822080546001600160a01b0319166001600160a01b038a811691821790925591518893918516917fddf252ad1be2c89b69c2b068fc378daa952ba7f163c4a11628f55a4df523b3ef91a495945050505050565b6103cd828260405180602001604052806000815250610e9a565b3361099c7f9016d09d72d40fdae2fd8ceac6b6234c7706214fd39c1cd1e609a0528c199300546001600160a01b031690565b6001600160a01b0316146105195760405163118cdaa760e01b81523360048201526024016103f7565b7f9016d09d72d40fdae2fd8ceac6b6234c7706214fd39c1cd1e609a0528c19930080546001600160a01b031981166001600160a01b03848116918217845560405192169182907f8be0079c531659141344cd1fd0a4f28419497f9722a3daafe3b4186f6b6457e090600090a3505050565b6000805160206115748339815191526001600160a01b038316610a7757604051630b61174360e31b81526001600160a01b03841660048201526024016103f7565b6001600160a01b038481166000818152600584016020908152604080832094881680845294825291829020805460ff191687151590811790915591519182527f17307eab39ab6107e8899845ad3d59bd9653f200f220920489ca2b5937696c31910160405180910390a350505050565b6001600160a01b0383163b1561045b57604051630a85bd0160e11b81526001600160a01b0384169063150b7a0290610b29903390889087908790600401611413565b6020604051808303816000875af1925050508015610b64575060408051601f3d908101601f19168201909252610b6191810190611450565b60015b610bcd573d808015610b92576040519150601f19603f3d011682016040523d82523d6000602084013e610b97565b606091505b508051600003610bc557604051633250574960e11b81526001600160a01b03851660048201526024016103f7565b805181602001fd5b6001600160e01b03198116630a85bd0160e11b14610c0957604051633250574960e11b81526001600160a01b03851660048201526024016103f7565b5050505050565b610c18610eb1565b6103cd8282610efa565b610c2a610eb1565b6107c481610f2b565b606060405180608001604052806043815260200161159460439139905090565b60606000610c6083610f33565b600101905060008167ffffffffffffffff811115610c8057610c8061125e565b6040519080825280601f01601f191660200182016040528015610caa576020820181803683370190505b5090508181016020015b600019016f181899199a1a9b1b9c1cb0b131b232b360811b600a86061a8153600a8504945084610cb457509392505050565b60009081527f80bb2b638cc20bc4d0a60d66940f3ab4a00c1d7b313497ca82fb0b4ab007930260205260409020546001600160a01b031690565b6000805160206115748339815191528180610d4357506001600160a01b03831615155b15610e05576000610d53856107c7565b90506001600160a01b03841615801590610d7f5750836001600160a01b0316816001600160a01b031614155b8015610d925750610d90818561073c565b155b15610dbb5760405163a9fbf51f60e01b81526001600160a01b03851660048201526024016103f7565b8215610e035784866001600160a01b0316826001600160a01b03167f8c5be1e5ebec7d5bd14f71427d1e84f3dd0314c0f7b2291e5b200ac8c7c3b92560405160405180910390a45b505b600093845260040160205250506040902080546001600160a01b0319166001600160a01b0392909216919091179055565b610e4183838361100b565b61049b576001600160a01b038316610e6f57604051637e27328960e01b8152600481018290526024016103f7565b60405163177e802f60e01b81526001600160a01b0383166004820152602481018290526044016103f7565b610ea48383611071565b61049b6000848484610ae7565b7ff0c57e16840df040f15088dc2f81fe391c3923bec73e23a9662efc9c229c6a0054600160401b900460ff1661051957604051631afcd79f60e31b815260040160405180910390fd5b610f02610eb1565b60008051602061157483398151915280610f1c84826114b3565b506001810161045b83826114b3565b610791610eb1565b60008072184f03e93ff9f4daa797ed6e38ed64bf6a1f0160401b8310610f725772184f03e93ff9f4daa797ed6e38ed64bf6a1f0160401b830492506040015b6d04ee2d6d415b85acef81000000008310610f9e576d04ee2d6d415b85acef8100000000830492506020015b662386f26fc100008310610fbc57662386f26fc10000830492506010015b6305f5e1008310610fd4576305f5e100830492506008015b6127108310610fe857612710830492506004015b60648310610ffa576064830492506002015b600a83106103035760010192915050565b60006001600160a01b038316158015906110695750826001600160a01b0316846001600160a01b031614806110455750611045848461073c565b806110695750826001600160a01b031661105e836107ff565b6001600160a01b0316145b949350505050565b6001600160a01b03821661109b57604051633250574960e11b8152600060048201526024016103f7565b60006110a983836000610846565b90506001600160a01b0381161561049b576040516339e3563760e11b8152600060048201526024016103f7565b6001600160e01b0319811681146107c457600080fd5b6000602082840312156110fe57600080fd5b8135610735816110d6565b60005b8381101561112457818101518382015260200161110c565b50506000910152565b60008151808452611145816020860160208601611109565b601f01601f19169290920160200192915050565b602081526000610735602083018461112d565b60006020828403121561117e57600080fd5b5035919050565b80356001600160a01b038116811461119c57600080fd5b919050565b600080604083850312156111b457600080fd5b6111bd83611185565b946020939093013593505050565b6000806000606084860312156111e057600080fd5b6111e984611185565b92506111f760208501611185565b9150604084013590509250925092565b60006020828403121561121957600080fd5b61073582611185565b6000806040838503121561123557600080fd5b61123e83611185565b91506020830135801515811461125357600080fd5b809150509250929050565b634e487b7160e01b600052604160045260246000fd5b6000806000806080858703121561128a57600080fd5b61129385611185565b93506112a160208601611185565b925060408501359150606085013567ffffffffffffffff808211156112c557600080fd5b818701915087601f8301126112d957600080fd5b8135818111156112eb576112eb61125e565b604051601f8201601f19908116603f011681019083821181831017156113135761131361125e565b816040528281528a602084870101111561132c57600080fd5b82602086016020830137600060208483010152809550505050505092959194509250565b6000806040838503121561136357600080fd5b61136c83611185565b915061137a60208401611185565b90509250929050565b600181811c9082168061139757607f821691505b6020821081036113b757634e487b7160e01b600052602260045260246000fd5b50919050565b6000600182016113dd57634e487b7160e01b600052601160045260246000fd5b5060010190565b600083516113f6818460208801611109565b83519083019061140a818360208801611109565b01949350505050565b6001600160a01b03858116825284166020820152604081018390526080606082018190526000906114469083018461112d565b9695505050505050565b60006020828403121561146257600080fd5b8151610735816110d6565b601f82111561049b57600081815260208120601f850160051c810160208610156114945750805b601f850160051c820191505b818110156106cc578281556001016114a0565b815167ffffffffffffffff8111156114cd576114cd61125e565b6114e1816114db8454611383565b8461146d565b602080601f83116001811461151657600084156114fe5750858301515b600019600386901b1c1916600185901b1785556106cc565b600085815260208120601f198616915b8281101561154557888601518255948401946001909101908401611526565b50858210156115635787850151600019600388901b60f8161c191681555b5050505050600190811b0190555056fe80bb2b638cc20bc4d0a60d66940f3ab4a00c1d7b313497ca82fb0b4ab0079300697066733a2f2f6261667962656963346e666678697061656b6f656e6e6969346977696e6c676f7170756e7972696c616d71763362796b6a6769796c75756a3572342fa2646970667358221220fcabdaf17d3c472e35de81655e1e44d5815925605ca058c33a3dca06ebcc1dc064736f6c63430008140033","linkReferences":{}},"methodIdentifiers":{"approve(address,uint256)":"095ea7b3","balanceOf(address)":"70a08231","getApproved(uint256)":"081812fc","initialize(address)":"c4d66de8","isApprovedForAll(address,address)":"e985e9c5","name()":"06fdde03","owner()":"8da5cb5b","ownerOf(uint256)":"6352211e","renounceOwnership()":"715018a6","safeMint(address)":"40d097c3","safeTransferFrom(address,address,uint256)":"42842e0e","safeTransferFrom(address,address,uint256,bytes)":"b88d4fde","setApprovalForAll(address,bool)":"a22cb465","supportsInterface(bytes4)":"01ffc9a7","symbol()":"95d89b41","tokenURI(uint256)":"c87b56dd","transferFrom(address,address,uint256)":"23b872dd","transferOwnership(address)":"f2fde38b"},"id":0}