{"abi":[{"type":"constructor","inputs":[],"stateMutability":"nonpayable"},{"type":"receive","stateMutability":"payable"},{"type":"function","name":"DOMAIN_SEPARATOR","inputs":[],"outputs":[{"name":"","type":"bytes32","internalType":"bytes32"}],"stateMutability":"view"},{"type":"function","name":"USDC","inputs":[],"outputs":[{"name":"","type":"address","internalType":"contract IERC20"}],"stateMutability":"view"},{"type":"function","name":"acceptBid","inputs":[{"name":"buyer","type":"address","internalType":"address"},{"name":"tokenId","type":"uint256","internalType":"uint256"},{"name":"price","type":"uint256","internalType":"uint256"},{"name":"deadline","type":"uint256","internalType":"uint256"},{"name":"v","type":"uint8","internalType":"uint8"},{"name":"r","type":"bytes32","internalType":"bytes32"},{"name":"s","type":"bytes32","internalType":"bytes32"}],"outputs":[],"stateMutability":"nonpayable"},{"type":"function","name":"eip712Domain","inputs":[],"outputs":[{"name":"fields","type":"bytes1","internalType":"bytes1"},{"name":"name","type":"string","internalType":"string"},{"name":"version","type":"string","internalType":"string"},{"name":"chainId","type":"uint256","internalType":"uint256"},{"name":"verifyingContract","type":"address","internalType":"address"},{"name":"salt","type":"bytes32","internalType":"bytes32"},{"name":"extensions","type":"uint256[]","internalType":"uint256[]"}],"stateMutability":"view"},{"type":"function","name":"feePercent","inputs":[],"outputs":[{"name":"","type":"uint8","internalType":"uint8"}],"stateMutability":"view"},{"type":"function","name":"getTotalPrice","inputs":[{"name":"_price","type":"uint256","internalType":"uint256"}],"outputs":[{"name":"_totalPrice","type":"uint256","internalType":"uint256"}],"stateMutability":"view"},{"type":"function","name":"initialize","inputs":[{"name":"_feePercent","type":"uint8","internalType":"uint8"},{"name":"_nftAddress","type":"address","internalType":"address"},{"name":"_USDC","type":"address","internalType":"address"}],"outputs":[],"stateMutability":"nonpayable"},{"type":"function","name":"items","inputs":[{"name":"","type":"uint256","internalType":"uint256"}],"outputs":[{"name":"price","type":"uint256","internalType":"uint256"},{"name":"seller","type":"address","internalType":"address payable"},{"name":"onSale","type":"bool","internalType":"bool"}],"stateMutability":"view"},{"type":"function","name":"listItem","inputs":[{"name":"_tokenId","type":"uint256","internalType":"uint256"},{"name":"_price","type":"uint256","internalType":"uint256"}],"outputs":[],"stateMutability":"nonpayable"},{"type":"function","name":"mint","inputs":[],"outputs":[],"stateMutability":"nonpayable"},{"type":"function","name":"nft","inputs":[],"outputs":[{"name":"","type":"address","internalType":"contract MarcChagall"}],"stateMutability":"view"},{"type":"function","name":"purchaseItem","inputs":[{"name":"_tokenId","type":"uint256","internalType":"uint256"}],"outputs":[],"stateMutability":"nonpayable"},{"type":"function","name":"removeListing","inputs":[{"name":"_tokenId","type":"uint256","internalType":"uint256"}],"outputs":[],"stateMutability":"nonpayable"},{"type":"event","name":"BidAccepted","inputs":[{"name":"_tokenId","type":"uint256","indexed":true,"internalType":"uint256"},{"name":"_buyer","type":"address","indexed":true,"internalType":"address"},{"name":"_seller","type":"address","indexed":false,"internalType":"address"},{"name":"_price","type":"uint256","indexed":true,"internalType":"uint256"}],"anonymous":false},{"type":"event","name":"BidCanceled","inputs":[{"name":"_tokenId","type":"uint256","indexed":true,"internalType":"uint256"},{"name":"_buyer","type":"address","indexed":true,"internalType":"address"},{"name":"_price","type":"uint256","indexed":true,"internalType":"uint256"}],"anonymous":false},{"type":"event","name":"BidCreated","inputs":[{"name":"_tokenId","type":"uint256","indexed":true,"internalType":"uint256"},{"name":"_buyer","type":"address","indexed":true,"internalType":"address"},{"name":"_price","type":"uint256","indexed":true,"internalType":"uint256"}],"anonymous":false},{"type":"event","name":"Bought","inputs":[{"name":"_itemId","type":"uint256","indexed":true,"internalType":"uint256"},{"name":"_price","type":"uint256","indexed":true,"internalType":"uint256"},{"name":"_buyer","type":"address","indexed":true,"internalType":"address"}],"anonymous":false},{"type":"event","name":"EIP712DomainChanged","inputs":[],"anonymous":false},{"type":"event","name":"Initialized","inputs":[{"name":"version","type":"uint64","indexed":false,"internalType":"uint64"}],"anonymous":false},{"type":"event","name":"Offered","inputs":[{"name":"_tokenId","type":"uint256","indexed":true,"internalType":"uint256"},{"name":"_price","type":"uint256","indexed":true,"internalType":"uint256"},{"name":"_seller","type":"address","indexed":true,"internalType":"address"}],"anonymous":false},{"type":"error","name":"AddressEmptyCode","inputs":[{"name":"target","type":"address","internalType":"address"}]},{"type":"error","name":"AddressInsufficientBalance","inputs":[{"name":"account","type":"address","internalType":"address"}]},{"type":"error","name":"ECDSAInvalidSignature","inputs":[]},{"type":"error","name":"ECDSAInvalidSignatureLength","inputs":[{"name":"length","type":"uint256","internalType":"uint256"}]},{"type":"error","name":"ECDSAInvalidSignatureS","inputs":[{"name":"s","type":"bytes32","internalType":"bytes32"}]},{"type":"error","name":"FailedInnerCall","inputs":[]},{"type":"error","name":"InvalidInitialization","inputs":[]},{"type":"error","name":"NotInitializing","inputs":[]},{"type":"error","name":"SafeERC20FailedOperation","inputs":[{"name":"token","type":"address","internalType":"address"}]}],"bytecode":{"object":"0x608060405234801561001057600080fd5b5061001961001e565b6100d0565b7ff0c57e16840df040f15088dc2f81fe391c3923bec73e23a9662efc9c229c6a00805468010000000000000000900460ff161561006e5760405163f92ee8a960e01b815260040160405180910390fd5b80546001600160401b03908116146100cd5780546001600160401b0319166001600160401b0390811782556040519081527fc7f505b2f371ae2175ee4913f4499e1f2633a7b5936321eed1cdaeb6115181d29060200160405180910390a15b50565b611d1a806100df6000396000f3fe6080604052600436106100c65760003560e01c806384b0196e1161007f578063bfb231d211610059578063bfb231d214610224578063ca7dd37514610292578063d38ea5bf146102b2578063e79805d3146102d257600080fd5b806384b0196e146101bc578063883efa67146101e457806389a302711461020457600080fd5b80631249c58b146100d25780633644e515146100e95780633ac5bd5b14610111578063479ad4c31461013157806347ccca02146101515780637fd6f15c1461018957600080fd5b366100cd57005b600080fd5b3480156100de57600080fd5b506100e76102f2565b005b3480156100f557600080fd5b506100fe610351565b6040519081526020015b60405180910390f35b34801561011d57600080fd5b506100e761012c366004611842565b610360565b34801561013d57600080fd5b506100e761014c3660046118a7565b6107aa565b34801561015d57600080fd5b50600054610171906001600160a01b031681565b6040516001600160a01b039091168152602001610108565b34801561019557600080fd5b506001546101aa90600160a01b900460ff1681565b60405160ff9091168152602001610108565b3480156101c857600080fd5b506101d16108c2565b6040516101089796959493929190611910565b3480156101f057600080fd5b506100e76101ff3660046119a6565b61096e565b34801561021057600080fd5b50600254610171906001600160a01b031681565b34801561023057600080fd5b5061026d61023f3660046118a7565b600360205260009081526040902080546001909101546001600160a01b03811690600160a01b900460ff1683565b604080519384526001600160a01b039092166020840152151590820152606001610108565b34801561029e57600080fd5b506100fe6102ad3660046118a7565b610c32565b3480156102be57600080fd5b506100e76102cd3660046118a7565b610c6c565b3480156102de57600080fd5b506100e76102ed3660046119c8565b610f0a565b6000546040516340d097c360e01b81523360048201526001600160a01b03909116906340d097c390602401600060405180830381600087803b15801561033757600080fd5b505af115801561034b573d6000803e3d6000fd5b50505050565b600061035b611117565b905090565b6000546040516331a9108f60e11b8152600481018890523391889183916001600160a01b031690636352211e90602401602060405180830381865afa1580156103ad573d6000803e3d6000fd5b505050506040513d601f19601f820116820180604052508101906103d19190611a11565b6001600160a01b0316146104005760405162461bcd60e51b81526004016103f790611a2e565b60405180910390fd5b854211156104505760405162461bcd60e51b815260206004820152601960248201527f54696d6520666f7220746869732062696420657870697265640000000000000060448201526064016103f7565b61045987610c32565b6002546040516370a0823160e01b81526001600160a01b038c81166004830152909116906370a0823190602401602060405180830381865afa1580156104a3573d6000803e3d6000fd5b505050506040513d601f19601f820116820180604052508101906104c79190611a65565b10156105325760405162461bcd60e51b815260206004820152603460248201527f42696464657220646f6e2774206861766520656e6f7567682062616c616e6365604482015273081d1bc81c185e48199bdc881d1a1a5cc8189a5960621b60648201526084016103f7565b60007f094563b0cbe60048c0e593974ef021127ee6aa8ef54de5bc1fd8c5e131cc9ae58a8a8a8a6105628f611121565b6040805160208101979097526001600160a01b03909516948601949094526060850192909252608084015260a083015260c082015260e00160405160208183030381529060405280519060200120905060006105bd82611152565b905060006105cd8289898961117f565b90508b6001600160a01b0316816001600160a01b0316146106245760405162461bcd60e51b8152602060048201526011602482015270496e76616c6964207369676e617475726560781b60448201526064016103f7565b60008b815260036020526040902060010154600160a01b900460ff16156106625760008b8152600360205260409020600101805460ff60a01b191690555b60008a61066e8c610c32565b6106789190611a94565b600254909150610693906001600160a01b03168e338e6111ad565b6106dd8d600160009054906101000a90046001600160a01b031683600260009054906101000a90046001600160a01b03166001600160a01b03166111ad909392919063ffffffff16565b600054604051632142170760e11b81523360048201526001600160a01b038f81166024830152604482018f9052909116906342842e0e90606401600060405180830381600087803b15801561073157600080fd5b505af1158015610745573d6000803e3d6000fd5b505050508a8d6001600160a01b03168d7fe6d56779a392535d3a591e92b65ba36f2ecc424bbf5220d0176a7da29385b5043360405161079391906001600160a01b0391909116815260200190565b60405180910390a450505050505050505050505050565b6000546040516331a9108f60e11b8152600481018390523391839183916001600160a01b031690636352211e90602401602060405180830381865afa1580156107f7573d6000803e3d6000fd5b505050506040513d601f19601f8201168201806040525081019061081b9190611a11565b6001600160a01b0316146108415760405162461bcd60e51b81526004016103f790611a2e565b600083815260036020526040902060010154600160a01b900460ff166108a25760405162461bcd60e51b8152602060048201526016602482015275151a1a5cc81a5d195b481a5cdb89dd081b1a5cdd195960521b60448201526064016103f7565b50506000908152600360205260409020600101805460ff60a01b19169055565b60006060808280808381600080516020611cc583398151915280549091501580156108ef57506001810154155b6109335760405162461bcd60e51b81526020600482015260156024820152741152540dcc4c8e88155b9a5b9a5d1a585b1a5e9959605a1b60448201526064016103f7565b61093b611207565b6109436112ca565b60408051600080825260208201909252600f60f81b9c939b5091995046985030975095509350915050565b6000546040516331a9108f60e11b8152600481018490523391849183916001600160a01b031690636352211e90602401602060405180830381865afa1580156109bb573d6000803e3d6000fd5b505050506040513d601f19601f820116820180604052508101906109df9190611a11565b6001600160a01b031614610a055760405162461bcd60e51b81526004016103f790611a2e565b82600003610a555760405162461bcd60e51b815260206004820152601d60248201527f50726963652073686f756c646e277420626520657175616c207a65726f00000060448201526064016103f7565b60005460405163020604bf60e21b81526004810186905230916001600160a01b03169063081812fc90602401602060405180830381865afa158015610a9e573d6000803e3d6000fd5b505050506040513d601f19601f82011682018060405250810190610ac29190611a11565b6001600160a01b03161480610b44575060005460405163e985e9c560e01b81523360048201523060248201526001600160a01b039091169063e985e9c590604401602060405180830381865afa158015610b20573d6000803e3d6000fd5b505050506040513d601f19601f82011682018060405250810190610b449190611abd565b610ba35760405162461bcd60e51b815260206004820152602a60248201527f596f7520686176656e277420617070726f766564204e465420666f72207468696044820152691cc818dbdb9d1c9858dd60b21b60648201526084016103f7565b60408051606081018252848152336020808301828152600184860181815260008b815260039094528684209551865591519401805491511515600160a01b026001600160a81b03199092166001600160a01b039590951694909417179092559151859187917f1ab3864560512bcd762f59576711bc5e90d3ef93e9253b43cd6be191b4a5814e9190a450505050565b600154600090606490610c4f90600160a01b900460ff1682611adf565b610c5c9060ff1684611af8565b610c669190611b0f565b92915050565b60008181526003602052604090206001810154600160a01b900460ff16610cca5760405162461bcd60e51b81526020600482015260126024820152714974656d2069736e2774206f6e2073616c6560701b60448201526064016103f7565b60018101546001600160a01b03163303610d265760405162461bcd60e51b815260206004820152601f60248201527f596f752063616e277420627579204e46542066726f6d20796f757273656c660060448201526064016103f7565b6000610d358260000154610c32565b6002546040516370a0823160e01b815233600482015291925082916001600160a01b03909116906370a0823190602401602060405180830381865afa158015610d82573d6000803e3d6000fd5b505050506040513d601f19601f82011682018060405250810190610da69190611a65565b1015610dfe5760405162461bcd60e51b815260206004820152602160248201527f496e73756666696369656e742066756e647320666f7220627579696e67204e466044820152601560fa1b60648201526084016103f7565b60018201805460ff60a01b1981169091558254600254610e2f926001600160a01b03918216923392909116906111ad565b6001548254610e649133916001600160a01b0390911690610e509085611a94565b6002546001600160a01b03169291906111ad565b6000546001830154604051632142170760e11b81526001600160a01b039182166004820152336024820152604481018690529116906342842e0e90606401600060405180830381600087803b158015610ebc57600080fd5b505af1158015610ed0573d6000803e3d6000fd5b5050835460405133935090915085907fa2a8034590a15fe810e9813d736096c0a03b3236cecb34b5b9f687ed67a6a62490600090a4505050565b7ff0c57e16840df040f15088dc2f81fe391c3923bec73e23a9662efc9c229c6a008054600160401b810460ff16159067ffffffffffffffff16600081158015610f505750825b905060008267ffffffffffffffff166001148015610f6d5750303b155b905081158015610f7b575080155b15610f995760405163f92ee8a960e01b815260040160405180910390fd5b845467ffffffffffffffff191660011785558315610fc357845460ff60401b1916600160401b1785555b60648860ff161061102b5760405162461bcd60e51b815260206004820152602c60248201527f4974277320756e7375616c2062696720636f6d697373696f6e2c20706c65617360448201526b194b0818da185b99d9481a5d60a21b60648201526084016103f7565b600180546001600160a81b0319163360ff60a01b191617600160a01b60ff8b1602178155600080546001600160a01b03199081166001600160a01b038b81169190911790925560028054909116918916919091179055604080518082018252600b81526a4d61726b6574706c61636560a81b6020808301919091528251808401909352928252603160f81b928201929092526110c79190611309565b831561110d57845460ff60401b19168555604051600181527fc7f505b2f371ae2175ee4913f4499e1f2633a7b5936321eed1cdaeb6115181d29060200160405180910390a15b5050505050505050565b600061035b61131f565b6001600160a01b038116600090815260046020526040812080549182919061114883611b31565b9190505550919050565b6000610c6661115f611117565b8360405161190160f01b8152600281019290925260228201526042902090565b60008060008061119188888888611393565b9250925092506111a18282611462565b50909695505050505050565b604080516001600160a01b0385811660248301528416604482015260648082018490528251808303909101815260849091019091526020810180516001600160e01b03166323b872dd60e01b17905261034b90859061151b565b7fa16a46d94261c7517cc8ff89f61c0ce93598e3c849801011dee649a6a557d1028054606091600080516020611cc58339815191529161124690611b4a565b80601f016020809104026020016040519081016040528092919081815260200182805461127290611b4a565b80156112bf5780601f10611294576101008083540402835291602001916112bf565b820191906000526020600020905b8154815290600101906020018083116112a257829003601f168201915b505050505091505090565b7fa16a46d94261c7517cc8ff89f61c0ce93598e3c849801011dee649a6a557d1038054606091600080516020611cc58339815191529161124690611b4a565b611311611583565b61131b82826115ce565b5050565b60007f8b73c3c69bb8fe3d512ecc4cf759cc79239f7b179b0ffacaa9a75d522b39400f61134a61162f565b611352611699565b60408051602081019490945283019190915260608201524660808201523060a082015260c00160405160208183030381529060405280519060200120905090565b600080807f7fffffffffffffffffffffffffffffff5d576e7357a4501ddfe92f46681b20a08411156113ce5750600091506003905082611458565b604080516000808252602082018084528a905260ff891692820192909252606081018790526080810186905260019060a0016020604051602081039080840390855afa158015611422573d6000803e3d6000fd5b5050604051601f1901519150506001600160a01b03811661144e57506000925060019150829050611458565b9250600091508190505b9450945094915050565b600082600381111561147657611476611b84565b0361147f575050565b600182600381111561149357611493611b84565b036114b15760405163f645eedf60e01b815260040160405180910390fd5b60028260038111156114c5576114c5611b84565b036114e65760405163fce698f760e01b8152600481018290526024016103f7565b60038260038111156114fa576114fa611b84565b0361131b576040516335e2f38360e21b8152600481018290526024016103f7565b60006115306001600160a01b038416836116dd565b905080516000141580156115555750808060200190518101906115539190611abd565b155b1561157e57604051635274afe760e01b81526001600160a01b03841660048201526024016103f7565b505050565b7ff0c57e16840df040f15088dc2f81fe391c3923bec73e23a9662efc9c229c6a0054600160401b900460ff166115cc57604051631afcd79f60e31b815260040160405180910390fd5b565b6115d6611583565b600080516020611cc58339815191527fa16a46d94261c7517cc8ff89f61c0ce93598e3c849801011dee649a6a557d1026116108482611be8565b506003810161161f8382611be8565b5060008082556001909101555050565b6000600080516020611cc583398151915281611649611207565b80519091501561166157805160209091012092915050565b81548015611670579392505050565b7fc5d2460186f7233c927e7db2dcc703c0e500b653ca82273b7bfad8045d85a470935050505090565b6000600080516020611cc5833981519152816116b36112ca565b8051909150156116cb57805160209091012092915050565b60018201548015611670579392505050565b60606116eb838360006116f2565b9392505050565b6060814710156117175760405163cd78605960e01b81523060048201526024016103f7565b600080856001600160a01b031684866040516117339190611ca8565b60006040518083038185875af1925050503d8060008114611770576040519150601f19603f3d011682016040523d82523d6000602084013e611775565b606091505b509150915061178586838361178f565b9695505050505050565b6060826117a45761179f826117eb565b6116eb565b81511580156117bb57506001600160a01b0384163b155b156117e457604051639996b31560e01b81526001600160a01b03851660048201526024016103f7565b50806116eb565b8051156117fb5780518082602001fd5b604051630a12f52160e11b815260040160405180910390fd5b50565b6001600160a01b038116811461181457600080fd5b803560ff8116811461183d57600080fd5b919050565b600080600080600080600060e0888a03121561185d57600080fd5b873561186881611817565b965060208801359550604088013594506060880135935061188b6080890161182c565b925060a0880135915060c0880135905092959891949750929550565b6000602082840312156118b957600080fd5b5035919050565b60005b838110156118db5781810151838201526020016118c3565b50506000910152565b600081518084526118fc8160208601602086016118c0565b601f01601f19169290920160200192915050565b60ff60f81b881681526000602060e08184015261193060e084018a6118e4565b8381036040850152611942818a6118e4565b606085018990526001600160a01b038816608086015260a0850187905284810360c0860152855180825283870192509083019060005b8181101561199457835183529284019291840191600101611978565b50909c9b505050505050505050505050565b600080604083850312156119b957600080fd5b50508035926020909101359150565b6000806000606084860312156119dd57600080fd5b6119e68461182c565b925060208401356119f681611817565b91506040840135611a0681611817565b809150509250925092565b600060208284031215611a2357600080fd5b81516116eb81611817565b6020808252601d908201527f596f75206172656e2774206f776e6572206f662074686520746f6b656e000000604082015260600190565b600060208284031215611a7757600080fd5b5051919050565b634e487b7160e01b600052601160045260246000fd5b81810381811115610c6657610c66611a7e565b634e487b7160e01b600052604160045260246000fd5b600060208284031215611acf57600080fd5b815180151581146116eb57600080fd5b60ff8181168382160190811115610c6657610c66611a7e565b8082028115828204841417610c6657610c66611a7e565b600082611b2c57634e487b7160e01b600052601260045260246000fd5b500490565b600060018201611b4357611b43611a7e565b5060010190565b600181811c90821680611b5e57607f821691505b602082108103611b7e57634e487b7160e01b600052602260045260246000fd5b50919050565b634e487b7160e01b600052602160045260246000fd5b601f82111561157e57600081815260208120601f850160051c81016020861015611bc15750805b601f850160051c820191505b81811015611be057828155600101611bcd565b505050505050565b815167ffffffffffffffff811115611c0257611c02611aa7565b611c1681611c108454611b4a565b84611b9a565b602080601f831160018114611c4b5760008415611c335750858301515b600019600386901b1c1916600185901b178555611be0565b600085815260208120601f198616915b82811015611c7a57888601518255948401946001909101908401611c5b565b5085821015611c985787850151600019600388901b60f8161c191681555b5050505050600190811b01905550565b60008251611cba8184602087016118c0565b919091019291505056fea16a46d94261c7517cc8ff89f61c0ce93598e3c849801011dee649a6a557d100a2646970667358221220d868b43596d7f9e6c6bf16121da69c21939a0c4881d4c80b1aa3da708628460864736f6c63430008140033","linkReferences":{}},"methodIdentifiers":{"DOMAIN_SEPARATOR()":"3644e515","USDC()":"89a30271","acceptBid(address,uint256,uint256,uint256,uint8,bytes32,bytes32)":"3ac5bd5b","eip712Domain()":"84b0196e","feePercent()":"7fd6f15c","getTotalPrice(uint256)":"ca7dd375","initialize(uint8,address,address)":"e79805d3","items(uint256)":"bfb231d2","listItem(uint256,uint256)":"883efa67","mint()":"1249c58b","nft()":"47ccca02","purchaseItem(uint256)":"d38ea5bf","removeListing(uint256)":"479ad4c3"},"id":2}