{"abi":[{"type":"constructor","inputs":[],"stateMutability":"nonpayable"},{"type":"receive","stateMutability":"payable"},{"type":"function","name":"DOMAIN_SEPARATOR","inputs":[],"outputs":[{"name":"","type":"bytes32","internalType":"bytes32"}],"stateMutability":"view"},{"type":"function","name":"USDC","inputs":[],"outputs":[{"name":"","type":"address","internalType":"contract IERC20"}],"stateMutability":"view"},{"type":"function","name":"acceptBid","inputs":[{"name":"buyer","type":"address","internalType":"address"},{"name":"tokenId","type":"uint256","internalType":"uint256"},{"name":"price","type":"uint256","internalType":"uint256"},{"name":"deadline","type":"uint256","internalType":"uint256"},{"name":"v","type":"uint8","internalType":"uint8"},{"name":"r","type":"bytes32","internalType":"bytes32"},{"name":"s","type":"bytes32","internalType":"bytes32"}],"outputs":[],"stateMutability":"nonpayable"},{"type":"function","name":"eip712Domain","inputs":[],"outputs":[{"name":"fields","type":"bytes1","internalType":"bytes1"},{"name":"name","type":"string","internalType":"string"},{"name":"version","type":"string","internalType":"string"},{"name":"chainId","type":"uint256","internalType":"uint256"},{"name":"verifyingContract","type":"address","internalType":"address"},{"name":"salt","type":"bytes32","internalType":"bytes32"},{"name":"extensions","type":"uint256[]","internalType":"uint256[]"}],"stateMutability":"view"},{"type":"function","name":"feePercent","inputs":[],"outputs":[{"name":"","type":"uint8","internalType":"uint8"}],"stateMutability":"view"},{"type":"function","name":"getTotalPrice","inputs":[{"name":"_price","type":"uint256","internalType":"uint256"}],"outputs":[{"name":"_totalPrice","type":"uint256","internalType":"uint256"}],"stateMutability":"view"},{"type":"function","name":"initialize","inputs":[{"name":"_feePercent","type":"uint8","internalType":"uint8"},{"name":"_nftAddress","type":"address","internalType":"address"},{"name":"_USDC","type":"address","internalType":"address"}],"outputs":[],"stateMutability":"nonpayable"},{"type":"function","name":"items","inputs":[{"name":"","type":"uint256","internalType":"uint256"}],"outputs":[{"name":"price","type":"uint256","internalType":"uint256"},{"name":"seller","type":"address","internalType":"address payable"},{"name":"onSale","type":"bool","internalType":"bool"}],"stateMutability":"view"},{"type":"function","name":"listItem","inputs":[{"name":"_tokenId","type":"uint256","internalType":"uint256"},{"name":"_price","type":"uint256","internalType":"uint256"}],"outputs":[],"stateMutability":"nonpayable"},{"type":"function","name":"mint","inputs":[],"outputs":[],"stateMutability":"nonpayable"},{"type":"function","name":"nft","inputs":[],"outputs":[{"name":"","type":"address","internalType":"contract MarcChagall"}],"stateMutability":"view"},{"type":"function","name":"purchaseItem","inputs":[{"name":"_tokenId","type":"uint256","internalType":"uint256"}],"outputs":[],"stateMutability":"nonpayable"},{"type":"function","name":"removeListing","inputs":[{"name":"_itemId","type":"uint256","internalType":"uint256"}],"outputs":[],"stateMutability":"nonpayable"},{"type":"event","name":"BidAccepted","inputs":[{"name":"_tokenId","type":"uint256","indexed":true,"internalType":"uint256"},{"name":"_buyer","type":"address","indexed":true,"internalType":"address"},{"name":"_seller","type":"address","indexed":false,"internalType":"address"},{"name":"_price","type":"uint256","indexed":true,"internalType":"uint256"}],"anonymous":false},{"type":"event","name":"BidCanceled","inputs":[{"name":"_tokenId","type":"uint256","indexed":true,"internalType":"uint256"},{"name":"_buyer","type":"address","indexed":true,"internalType":"address"},{"name":"_price","type":"uint256","indexed":true,"internalType":"uint256"}],"anonymous":false},{"type":"event","name":"BidCreated","inputs":[{"name":"_tokenId","type":"uint256","indexed":true,"internalType":"uint256"},{"name":"_buyer","type":"address","indexed":true,"internalType":"address"},{"name":"_price","type":"uint256","indexed":true,"internalType":"uint256"}],"anonymous":false},{"type":"event","name":"Bought","inputs":[{"name":"_itemId","type":"uint256","indexed":true,"internalType":"uint256"},{"name":"_price","type":"uint256","indexed":true,"internalType":"uint256"},{"name":"_buyer","type":"address","indexed":true,"internalType":"address"}],"anonymous":false},{"type":"event","name":"EIP712DomainChanged","inputs":[],"anonymous":false},{"type":"event","name":"Initialized","inputs":[{"name":"version","type":"uint64","indexed":false,"internalType":"uint64"}],"anonymous":false},{"type":"event","name":"Offered","inputs":[{"name":"_tokenId","type":"uint256","indexed":true,"internalType":"uint256"},{"name":"_price","type":"uint256","indexed":true,"internalType":"uint256"},{"name":"_seller","type":"address","indexed":true,"internalType":"address"}],"anonymous":false},{"type":"error","name":"AddressEmptyCode","inputs":[{"name":"target","type":"address","internalType":"address"}]},{"type":"error","name":"AddressInsufficientBalance","inputs":[{"name":"account","type":"address","internalType":"address"}]},{"type":"error","name":"ECDSAInvalidSignature","inputs":[]},{"type":"error","name":"ECDSAInvalidSignatureLength","inputs":[{"name":"length","type":"uint256","internalType":"uint256"}]},{"type":"error","name":"ECDSAInvalidSignatureS","inputs":[{"name":"s","type":"bytes32","internalType":"bytes32"}]},{"type":"error","name":"FailedInnerCall","inputs":[]},{"type":"error","name":"InvalidInitialization","inputs":[]},{"type":"error","name":"NotInitializing","inputs":[]},{"type":"error","name":"SafeERC20FailedOperation","inputs":[{"name":"token","type":"address","internalType":"address"}]}],"bytecode":{"object":"0x608060405234801561001057600080fd5b5061001961001e565b6100d0565b7ff0c57e16840df040f15088dc2f81fe391c3923bec73e23a9662efc9c229c6a00805468010000000000000000900460ff161561006e5760405163f92ee8a960e01b815260040160405180910390fd5b80546001600160401b03908116146100cd5780546001600160401b0319166001600160401b0390811782556040519081527fc7f505b2f371ae2175ee4913f4499e1f2633a7b5936321eed1cdaeb6115181d29060200160405180910390a15b50565b611d07806100df6000396000f3fe6080604052600436106100c65760003560e01c806384b0196e1161007f578063bfb231d211610059578063bfb231d214610224578063ca7dd37514610292578063d38ea5bf146102b2578063e79805d3146102d257600080fd5b806384b0196e146101bc578063883efa67146101e457806389a302711461020457600080fd5b80631249c58b146100d25780633644e515146100e95780633ac5bd5b14610111578063479ad4c31461013157806347ccca02146101515780637fd6f15c1461018957600080fd5b366100cd57005b600080fd5b3480156100de57600080fd5b506100e76102f2565b005b3480156100f557600080fd5b506100fe610351565b6040519081526020015b60405180910390f35b34801561011d57600080fd5b506100e761012c366004611866565b610360565b34801561013d57600080fd5b506100e761014c3660046118cb565b6107d6565b34801561015d57600080fd5b50600054610171906001600160a01b031681565b6040516001600160a01b039091168152602001610108565b34801561019557600080fd5b506001546101aa90600160a01b900460ff1681565b60405160ff9091168152602001610108565b3480156101c857600080fd5b506101d16108b6565b6040516101089796959493929190611934565b3480156101f057600080fd5b506100e76101ff3660046119ca565b610962565b34801561021057600080fd5b50600254610171906001600160a01b031681565b34801561023057600080fd5b5061026d61023f3660046118cb565b600360205260009081526040902080546001909101546001600160a01b03811690600160a01b900460ff1683565b604080519384526001600160a01b039092166020840152151590820152606001610108565b34801561029e57600080fd5b506100fe6102ad3660046118cb565b610c56565b3480156102be57600080fd5b506100e76102cd3660046118cb565b610c90565b3480156102de57600080fd5b506100e76102ed3660046119ec565b610f2e565b6000546040516340d097c360e01b81523360048201526001600160a01b03909116906340d097c390602401600060405180830381600087803b15801561033757600080fd5b505af115801561034b573d6000803e3d6000fd5b50505050565b600061035b61113b565b905090565b6000546040516331a9108f60e11b8152600481018890523391889183916001600160a01b031690636352211e90602401602060405180830381865afa1580156103ad573d6000803e3d6000fd5b505050506040513d601f19601f820116820180604052508101906103d19190611a35565b6001600160a01b03161461042c5760405162461bcd60e51b815260206004820152601d60248201527f596f75206172656e2774206f776e6572206f662074686520746f6b656e00000060448201526064015b60405180910390fd5b8542111561047c5760405162461bcd60e51b815260206004820152601960248201527f54696d6520666f722074686973206269642065787069726564000000000000006044820152606401610423565b61048587610c56565b6002546040516370a0823160e01b81526001600160a01b038c81166004830152909116906370a0823190602401602060405180830381865afa1580156104cf573d6000803e3d6000fd5b505050506040513d601f19601f820116820180604052508101906104f39190611a52565b101561055e5760405162461bcd60e51b815260206004820152603460248201527f42696464657220646f6e2774206861766520656e6f7567682062616c616e6365604482015273081d1bc81c185e48199bdc881d1a1a5cc8189a5960621b6064820152608401610423565b60007f094563b0cbe60048c0e593974ef021127ee6aa8ef54de5bc1fd8c5e131cc9ae58a8a8a8a61058e8f611145565b6040805160208101979097526001600160a01b03909516948601949094526060850192909252608084015260a083015260c082015260e00160405160208183030381529060405280519060200120905060006105e982611176565b905060006105f9828989896111a3565b90508b6001600160a01b0316816001600160a01b0316146106505760405162461bcd60e51b8152602060048201526011602482015270496e76616c6964207369676e617475726560781b6044820152606401610423565b60008b815260036020526040902060010154600160a01b900460ff161561068e5760008b8152600360205260409020600101805460ff60a01b191690555b60008a61069a8c610c56565b6106a49190611a81565b6002549091506106bf906001600160a01b03168e338e6111d1565b6107098d600160009054906101000a90046001600160a01b031683600260009054906101000a90046001600160a01b03166001600160a01b03166111d1909392919063ffffffff16565b600054604051632142170760e11b81523360048201526001600160a01b038f81166024830152604482018f9052909116906342842e0e90606401600060405180830381600087803b15801561075d57600080fd5b505af1158015610771573d6000803e3d6000fd5b505050508a8d6001600160a01b03168d7fe6d56779a392535d3a591e92b65ba36f2ecc424bbf5220d0176a7da29385b504336040516107bf91906001600160a01b0391909116815260200190565b60405180910390a450505050505050505050505050565b6000818152600360205260409020600101546001600160a01b031633146108375760405162461bcd60e51b81526020600482015260156024820152742cb7ba9030b932b713ba103a34329039b2b63632b960591b6044820152606401610423565b600081815260036020526040902060010154600160a01b900460ff166108985760405162461bcd60e51b8152602060048201526016602482015275151a1a5cc81a5d195b481a5cdb89dd081b1a5cdd195960521b6044820152606401610423565b6000908152600360205260409020600101805460ff60a01b19169055565b60006060808280808381600080516020611cb283398151915280549091501580156108e357506001810154155b6109275760405162461bcd60e51b81526020600482015260156024820152741152540dcc4c8e88155b9a5b9a5d1a585b1a5e9959605a1b6044820152606401610423565b61092f61122b565b6109376112ee565b60408051600080825260208201909252600f60f81b9c939b5091995046985030975095509350915050565b6000546040516331a9108f60e11b8152600481018490523391849183916001600160a01b031690636352211e90602401602060405180830381865afa1580156109af573d6000803e3d6000fd5b505050506040513d601f19601f820116820180604052508101906109d39190611a35565b6001600160a01b031614610a295760405162461bcd60e51b815260206004820152601d60248201527f596f75206172656e2774206f776e6572206f662074686520746f6b656e0000006044820152606401610423565b82600003610a795760405162461bcd60e51b815260206004820152601d60248201527f50726963652073686f756c646e277420626520657175616c207a65726f0000006044820152606401610423565b60005460405163020604bf60e21b81526004810186905230916001600160a01b03169063081812fc90602401602060405180830381865afa158015610ac2573d6000803e3d6000fd5b505050506040513d601f19601f82011682018060405250810190610ae69190611a35565b6001600160a01b03161480610b68575060005460405163e985e9c560e01b81523360048201523060248201526001600160a01b039091169063e985e9c590604401602060405180830381865afa158015610b44573d6000803e3d6000fd5b505050506040513d601f19601f82011682018060405250810190610b689190611aaa565b610bc75760405162461bcd60e51b815260206004820152602a60248201527f596f7520686176656e277420617070726f766564204e465420666f72207468696044820152691cc818dbdb9d1c9858dd60b21b6064820152608401610423565b60408051606081018252848152336020808301828152600184860181815260008b815260039094528684209551865591519401805491511515600160a01b026001600160a81b03199092166001600160a01b039590951694909417179092559151859187917f1ab3864560512bcd762f59576711bc5e90d3ef93e9253b43cd6be191b4a5814e9190a450505050565b600154600090606490610c7390600160a01b900460ff1682611acc565b610c809060ff1684611ae5565b610c8a9190611afc565b92915050565b60008181526003602052604090206001810154600160a01b900460ff16610cee5760405162461bcd60e51b81526020600482015260126024820152714974656d2069736e2774206f6e2073616c6560701b6044820152606401610423565b60018101546001600160a01b03163303610d4a5760405162461bcd60e51b815260206004820152601f60248201527f596f752063616e277420627579204e46542066726f6d20796f757273656c66006044820152606401610423565b6000610d598260000154610c56565b6002546040516370a0823160e01b815233600482015291925082916001600160a01b03909116906370a0823190602401602060405180830381865afa158015610da6573d6000803e3d6000fd5b505050506040513d601f19601f82011682018060405250810190610dca9190611a52565b1015610e225760405162461bcd60e51b815260206004820152602160248201527f496e73756666696369656e742066756e647320666f7220627579696e67204e466044820152601560fa1b6064820152608401610423565b60018201805460ff60a01b1981169091558254600254610e53926001600160a01b03918216923392909116906111d1565b6001548254610e889133916001600160a01b0390911690610e749085611a81565b6002546001600160a01b03169291906111d1565b6000546001830154604051632142170760e11b81526001600160a01b039182166004820152336024820152604481018690529116906342842e0e90606401600060405180830381600087803b158015610ee057600080fd5b505af1158015610ef4573d6000803e3d6000fd5b5050835460405133935090915085907fa2a8034590a15fe810e9813d736096c0a03b3236cecb34b5b9f687ed67a6a62490600090a4505050565b7ff0c57e16840df040f15088dc2f81fe391c3923bec73e23a9662efc9c229c6a008054600160401b810460ff16159067ffffffffffffffff16600081158015610f745750825b905060008267ffffffffffffffff166001148015610f915750303b155b905081158015610f9f575080155b15610fbd5760405163f92ee8a960e01b815260040160405180910390fd5b845467ffffffffffffffff191660011785558315610fe757845460ff60401b1916600160401b1785555b60648860ff161061104f5760405162461bcd60e51b815260206004820152602c60248201527f4974277320756e7375616c2062696720636f6d697373696f6e2c20706c65617360448201526b194b0818da185b99d9481a5d60a21b6064820152608401610423565b600180546001600160a81b0319163360ff60a01b191617600160a01b60ff8b1602178155600080546001600160a01b03199081166001600160a01b038b81169190911790925560028054909116918916919091179055604080518082018252600b81526a4d61726b6574706c61636560a81b6020808301919091528251808401909352928252603160f81b928201929092526110eb919061132d565b831561113157845460ff60401b19168555604051600181527fc7f505b2f371ae2175ee4913f4499e1f2633a7b5936321eed1cdaeb6115181d29060200160405180910390a15b5050505050505050565b600061035b611343565b6001600160a01b038116600090815260046020526040812080549182919061116c83611b1e565b9190505550919050565b6000610c8a61118361113b565b8360405161190160f01b8152600281019290925260228201526042902090565b6000806000806111b5888888886113b7565b9250925092506111c58282611486565b50909695505050505050565b604080516001600160a01b0385811660248301528416604482015260648082018490528251808303909101815260849091019091526020810180516001600160e01b03166323b872dd60e01b17905261034b90859061153f565b7fa16a46d94261c7517cc8ff89f61c0ce93598e3c849801011dee649a6a557d1028054606091600080516020611cb28339815191529161126a90611b37565b80601f016020809104026020016040519081016040528092919081815260200182805461129690611b37565b80156112e35780601f106112b8576101008083540402835291602001916112e3565b820191906000526020600020905b8154815290600101906020018083116112c657829003601f168201915b505050505091505090565b7fa16a46d94261c7517cc8ff89f61c0ce93598e3c849801011dee649a6a557d1038054606091600080516020611cb28339815191529161126a90611b37565b6113356115a7565b61133f82826115f2565b5050565b60007f8b73c3c69bb8fe3d512ecc4cf759cc79239f7b179b0ffacaa9a75d522b39400f61136e611653565b6113766116bd565b60408051602081019490945283019190915260608201524660808201523060a082015260c00160405160208183030381529060405280519060200120905090565b600080807f7fffffffffffffffffffffffffffffff5d576e7357a4501ddfe92f46681b20a08411156113f2575060009150600390508261147c565b604080516000808252602082018084528a905260ff891692820192909252606081018790526080810186905260019060a0016020604051602081039080840390855afa158015611446573d6000803e3d6000fd5b5050604051601f1901519150506001600160a01b0381166114725750600092506001915082905061147c565b9250600091508190505b9450945094915050565b600082600381111561149a5761149a611b71565b036114a3575050565b60018260038111156114b7576114b7611b71565b036114d55760405163f645eedf60e01b815260040160405180910390fd5b60028260038111156114e9576114e9611b71565b0361150a5760405163fce698f760e01b815260048101829052602401610423565b600382600381111561151e5761151e611b71565b0361133f576040516335e2f38360e21b815260048101829052602401610423565b60006115546001600160a01b03841683611701565b905080516000141580156115795750808060200190518101906115779190611aaa565b155b156115a257604051635274afe760e01b81526001600160a01b0384166004820152602401610423565b505050565b7ff0c57e16840df040f15088dc2f81fe391c3923bec73e23a9662efc9c229c6a0054600160401b900460ff166115f057604051631afcd79f60e31b815260040160405180910390fd5b565b6115fa6115a7565b600080516020611cb28339815191527fa16a46d94261c7517cc8ff89f61c0ce93598e3c849801011dee649a6a557d1026116348482611bd5565b50600381016116438382611bd5565b5060008082556001909101555050565b6000600080516020611cb28339815191528161166d61122b565b80519091501561168557805160209091012092915050565b81548015611694579392505050565b7fc5d2460186f7233c927e7db2dcc703c0e500b653ca82273b7bfad8045d85a470935050505090565b6000600080516020611cb2833981519152816116d76112ee565b8051909150156116ef57805160209091012092915050565b60018201548015611694579392505050565b606061170f83836000611716565b9392505050565b60608147101561173b5760405163cd78605960e01b8152306004820152602401610423565b600080856001600160a01b031684866040516117579190611c95565b60006040518083038185875af1925050503d8060008114611794576040519150601f19603f3d011682016040523d82523d6000602084013e611799565b606091505b50915091506117a98683836117b3565b9695505050505050565b6060826117c8576117c38261180f565b61170f565b81511580156117df57506001600160a01b0384163b155b1561180857604051639996b31560e01b81526001600160a01b0385166004820152602401610423565b508061170f565b80511561181f5780518082602001fd5b604051630a12f52160e11b815260040160405180910390fd5b50565b6001600160a01b038116811461183857600080fd5b803560ff8116811461186157600080fd5b919050565b600080600080600080600060e0888a03121561188157600080fd5b873561188c8161183b565b96506020880135955060408801359450606088013593506118af60808901611850565b925060a0880135915060c0880135905092959891949750929550565b6000602082840312156118dd57600080fd5b5035919050565b60005b838110156118ff5781810151838201526020016118e7565b50506000910152565b600081518084526119208160208601602086016118e4565b601f01601f19169290920160200192915050565b60ff60f81b881681526000602060e08184015261195460e084018a611908565b8381036040850152611966818a611908565b606085018990526001600160a01b038816608086015260a0850187905284810360c0860152855180825283870192509083019060005b818110156119b85783518352928401929184019160010161199c565b50909c9b505050505050505050505050565b600080604083850312156119dd57600080fd5b50508035926020909101359150565b600080600060608486031215611a0157600080fd5b611a0a84611850565b92506020840135611a1a8161183b565b91506040840135611a2a8161183b565b809150509250925092565b600060208284031215611a4757600080fd5b815161170f8161183b565b600060208284031215611a6457600080fd5b5051919050565b634e487b7160e01b600052601160045260246000fd5b81810381811115610c8a57610c8a611a6b565b634e487b7160e01b600052604160045260246000fd5b600060208284031215611abc57600080fd5b8151801515811461170f57600080fd5b60ff8181168382160190811115610c8a57610c8a611a6b565b8082028115828204841417610c8a57610c8a611a6b565b600082611b1957634e487b7160e01b600052601260045260246000fd5b500490565b600060018201611b3057611b30611a6b565b5060010190565b600181811c90821680611b4b57607f821691505b602082108103611b6b57634e487b7160e01b600052602260045260246000fd5b50919050565b634e487b7160e01b600052602160045260246000fd5b601f8211156115a257600081815260208120601f850160051c81016020861015611bae5750805b601f850160051c820191505b81811015611bcd57828155600101611bba565b505050505050565b815167ffffffffffffffff811115611bef57611bef611a94565b611c0381611bfd8454611b37565b84611b87565b602080601f831160018114611c385760008415611c205750858301515b600019600386901b1c1916600185901b178555611bcd565b600085815260208120601f198616915b82811015611c6757888601518255948401946001909101908401611c48565b5085821015611c855787850151600019600388901b60f8161c191681555b5050505050600190811b01905550565b60008251611ca78184602087016118e4565b919091019291505056fea16a46d94261c7517cc8ff89f61c0ce93598e3c849801011dee649a6a557d100a264697066735822122021484358a88442e3a69ede5b95c3da5b8c825a91573c7866e3db22b01810e02164736f6c63430008140033","linkReferences":{}},"methodIdentifiers":{"DOMAIN_SEPARATOR()":"3644e515","USDC()":"89a30271","acceptBid(address,uint256,uint256,uint256,uint8,bytes32,bytes32)":"3ac5bd5b","eip712Domain()":"84b0196e","feePercent()":"7fd6f15c","getTotalPrice(uint256)":"ca7dd375","initialize(uint8,address,address)":"e79805d3","items(uint256)":"bfb231d2","listItem(uint256,uint256)":"883efa67","mint()":"1249c58b","nft()":"47ccca02","purchaseItem(uint256)":"d38ea5bf","removeListing(uint256)":"479ad4c3"},"id":2}